:020000040000FA
:100000000C9461000C947E000C947E000C947E0095
:100010000C947E000C947E000C947E000C947E0068
:100020000C947E000C947E000C947E000C947E0058
:100030000C947E000C947E000C947E000C947E0048
:100040000C948C010C947E000C947E000C947E0029
:100050000C947E000C947E000C947E000C947E0028
:100060000C947E000C947E00000000002400270009
:100070002A0000000000250028002B0000000000DE
:1000800023002600290004040404040404040202DA
:100090000202020203030303030301020408102007
:1000A0004080010204081020010204081020000012
:1000B0000008000201000003040700000000000027
:1000C000000011241FBECFEFD8E0DEBFCDBF11E08E
:1000D000A0E0B1E0E8EEF6E002C005900D92A2309B
:1000E000B107D9F721E0A2E0B1E001C01D92A13132
:1000F000B207E1F70E94D6010C9472030C94000041
:10010000833081F028F4813099F08230A9F008958D
:100110008730A9F08830C9F08430B1F48091800034
:100120008F7D03C0809180008F7780938000089539
:1001300084B58F7784BD089584B58F7DFBCF809182
:10014000B0008F778093B00008958091B0008F7DCC
:10015000F9CFCF93DF93282F30E0F901E255FF4F1D
:100160008491F901E656FF4FD491F901EA57FF4F08
:10017000C491CC23A1F081110E948000EC2FF0E00B
:10018000EE0FFF1FE458FF4FA591B491EC91ED23C2
:1001900081E090E009F480E0DF91CF91089580E064
:1001A00090E0FACF1F93CF93DF93282F30E0F9012F
:1001B000E255FF4F8491F901E656FF4FD491F901C2
:1001C000EA57FF4FC491CC23A9F0162F81110E944A
:1001D0008000EC2FF0E0EE0FFF1FEE58FF4FA591CF
:1001E000B4918FB7F894EC91111108C0D095DE232B
:1001F000DC938FBFDF91CF911F910895DE2BF8CF55
:10020000CF93DF9390E0FC01E656FF4F24918A578D
:100210009F4FFC0184918823D1F090E0880F991FB3
:10022000FC01E859FF4FA591B491FC01EE58FF4F36
:10023000C591D49161110EC09FB7F8948C91E22FB3
:10024000E0958E238C932881E223E8839FBFDF9182
:10025000CF9108958FB7F894EC91E22BEC938FBF78
:10026000F6CF3FB7F89480910D0190910E01A091C7
:100270000F01B091100126B5A89B05C02F3F19F0C2
:100280000196A11DB11D3FBFBA2FA92F982F882716
:10029000BC01CD01620F711D811D911D42E0660FF1
:1002A000771F881F991F4A95D1F708958F929F92C3
:1002B000AF92BF92CF92DF92EF92FF920E943101F4
:1002C0004B015C0188EEC82E83E0D82EE12CF12C86
:1002D0000E943101681979098A099B09683E7340B7
:1002E00081059105A8F321E0C21AD108E108F108BF
:1002F00088EE880E83E0981EA11CB11CC114D104A5
:10030000E104F10429F7FF90EF90DF90CF90BF90C8
:10031000AF909F908F9008951F920F920FB60F92FB
:1003200011242F933F938F939F93AF93BF9380910B
:10033000090190910A01A0910B01B0910C0130913B
:10034000080123E0230F2D3758F50196A11DB11D9B
:10035000209308018093090190930A01A0930B0157
:10036000B0930C0180910D0190910E01A0910F01AD
:10037000B09110010196A11DB11D80930D019093C4
:100380000E01A0930F01B0931001BF91AF919F9107
:100390008F913F912F910F900FBE0F901F90189546
:1003A00026E8230F0296A11DB11DD2CF789484B503
:1003B000826084BD84B5816084BD85B5826085BD61
:1003C00085B5816085BD80916E00816080936E00EF
:1003D00010928100809181008260809381008091E1
:1003E0008100816080938100809180008160809392
:1003F00080008091B10084608093B1008091B00052
:1004000081608093B00080917A00846080937A004C
:1004100080917A00826080937A0080917A00816076
:1004200080937A0080917A00806880937A0010929D
:10043000C10061E08AE00E94000161E08BE00E945F
:10044000000161E08CE00E94000161E082E00E9416
:10045000000161E083E00E94000160E087E00E940B
:1004600000012FB7F8948091090190910A01A091A1
:100470000B01B0910C012FBF8093030190930401F5
:10048000A0930501B093060161E08AE00E94D200CA
:1004900061E083E00E94D20090E0692E90E0792E26
:1004A000C6E0D0E005E010E024E0E22EF12C33E0DD
:1004B000C32ED12C42E0A42EB12C87E00E94A900CB
:1004C000813011F48093070180910701813009F098
:1004D00002C18FB7F8944091090150910A016091CF
:1004E0000B0170910C018FBF809103019091040169
:1004F000A0910501B09106011A012B01281A390AB1
:100500004A0A5B0A809100019091010129EB2216B1
:100510002BE032064104510408F048C081309105B7
:1005200009F05CC0409303015093040160930501FE
:100530007093060160E08AE00E94D20061E08BE0E7
:100540000E94D200B0920101A09200018FB7F894EE
:100550004091090150910A0160910B0170910C01C9
:100560008FBF8091030190910401A0910501B0918A
:10057000060188579C4EAF4FBF4F84179507A607BB
:10058000B70708F4A8C08091000190910101069777
:1005900009F0A1C087E00E94A9008130B9F69091CE
:1005A00002019111D3CF80930201D0CF8230910507
:1005B000E9F44093030150930401609305017093A3
:1005C000060160E08BE00E94D20061E08CE00E94B6
:1005D000D200D0920101C0920001B8CF21ED2216C5
:1005E00027E032064104510408F442C083309105EB
:1005F000A9F44093030150930401609305017093A3
:10060000060161E082E00E94D20060E083E00E9487
:10061000D200F0920101E092000198CF29E8221661
:1006200023E132064104510418F18430910541F56B
:1006300040930301509304016093050170930601F8
:1006400083E0882E912C60E082E00E94D2000E941C
:10065000560161E082E00E94D2000E94560181E0D2
:10066000881A910881F710930101009300016ECF61
:1006700029EE221623E032064104510408F466CF25
:10068000059709F063CF2FB7F894809109019091F5
:100690000A01A0910B01B0910C012FBF80930301BF
:1006A00090930401A0930501B093060160E08CE0F3
:1006B0000E94D20060E082E00E94D20061E08AE005
:1006C0000E94D20061E083E00E94D200D093010139
:1006D000C09300013BCF6114710409F4EECE0E9477
:0A06E0000000EBCEF894FFCF0100FC
:107E0000112484B714BE81FFF0D085E080938100F7
:107E100082E08093C00088E18093C10086E0809377
:107E2000C20080E18093C4008EE0C9D0259A86E02C
:107E300020E33CEF91E0309385002093840096BBD3
:107E4000B09BFECF1D9AA8958150A9F7CC24DD24C4
:107E500088248394B5E0AB2EA1E19A2EF3E0BF2EE7
:107E6000A2D0813461F49FD0082FAFD0023811F036
:107E7000013811F484E001C083E08DD089C08234E0
:107E800011F484E103C0853419F485E0A6D080C0E4
:107E9000853579F488D0E82EFF2485D0082F10E0AE
:107EA000102F00270E291F29000F111F8ED06801E7
:107EB0006FC0863521F484E090D080E0DECF843638
:107EC00009F040C070D06FD0082F6DD080E0C81688
:107ED00080E7D80618F4F601B7BEE895C0E0D1E017
:107EE00062D089930C17E1F7F0E0CF16F0E7DF06D8
:107EF00018F0F601B7BEE89568D007B600FCFDCFD4
:107F0000A601A0E0B1E02C9130E011968C91119780
:107F100090E0982F8827822B932B1296FA010C0160
:107F200087BEE89511244E5F5F4FF1E0A038BF0790
:107F300051F7F601A7BEE89507B600FCFDCF97BE46
:107F4000E89526C08437B1F42ED02DD0F82E2BD052
:107F50003CD0F601EF2C8F010F5F1F4F84911BD097
:107F6000EA94F801C1F70894C11CD11CFA94CF0C13
:107F7000D11C0EC0853739F428D08EE10CD085E9AC
:107F80000AD08FE07ACF813511F488E018D01DD067
:107F900080E101D065CF982F8091C00085FFFCCF94
:107FA0009093C60008958091C00087FFFCCF809118
:107FB000C00084FD01C0A8958091C6000895E0E648
:107FC000F0E098E1908380830895EDDF803219F02E
:107FD00088E0F5DFFFCF84E1DECF1F93182FE3DFCA
:107FE0001150E9F7F2DF1F91089580E0E8DFEE27F6
:047FF000FF270994CA
:027FFE00040479
:00000001FF
